S01400004D6F62696C655F6D6F746F722E7372656328
S11300000C942A000C9447000C9447000C9447006D
S11300100C9447000C9447000C9447000C94470040
S11300200C9447000C9447000C9447000C94470030
S11300300C9447000C9447000C9447000C94470020
S11300400C9447000C9447000C9447000C94470010
S11300500C94470011241FBECFE5D8E0DEBFCDBF0E
S113006010E0A0E6B0E0ECE1F4E002C005900D92EF
S1130070A63AB107D9F710E0A6EAB0E001C01D9294
S1130080A63AB107E1F70E9449000C940C020C94C3
S113009000000E94CA000E949A0080E090E00E9442
S11300A0A00080E690E00E94D900C0E6D0E001E024
S11300B012E00E94D500843541F4A09AA19AA89A2E
S11300C0A998CE010E94D900F4CF863329F48CE399
S11300D090E00E94A000EDCF873329F486E490E0FD
S11300E00E94A000E6CF883329F480E590E00E94C6
S11300F0A000DFCF893329F48AE590E00E94A000B4
S1130100D8CF813349F40E94D500803391F684E638
S113011090E00E94A000CDCF823539F485B38027CA
S113012085BB85B3812785BBC4CF8F3411F6A098D6
S1130130A198BFCF8D9A83E88FBD89E08EBD0895C5
S1130140BC0180E090E00E941B0124E13EEA43E20E
S113015051E40E9481010E94EF00DC01CB019BBDB0
S11301608ABD08958C9A83E28FBD89E08EBD08957F
S1130170BC0180E090E00E941B0124E13EEA43E2DE
S113018051E40E9481010E94EF00DC01CB0199BD82
S113019088BD089587E689B988E18AB986E880BD73
S11301A008955D9BFECF8CB908955F9BFECF8CB103
S11301B008950F931F93CF938C01FC0180818823B2
S11301C051F0C0E00E94D100CF5FF801EC0FF11DA7
S11301D080818823B9F7CF911F910F91089570D032
S11301E088F09F5790F0B92F9927B751A0F0D1F01C
S11301F0660F771F881F991F1AF0BA95C9F712C0A6
S1130200B13081F077D0B1E0089574C0672F782FB2
S11302108827B85F39F0B93FCCF386957795679511
S1130220B395D9F73EF490958095709561957F4F7D
S11302308F4F9F4F0895E89409C097FB3EF4909523
S11302408095709561957F4F8F4F9F4F9923A9F0AB
S1130250F92F96E9BB279395F6958795779567953A
S1130260B795F111F8CFFAF4BB0F11F460FF1BC07E
S11302706F5F7F4F8F4F9F4F16C0882311F096E911
S113028011C0772321F09EE8872F762F05C06623BF
S113029071F096E8862F70E060E02AF09A95660F78
S11302A0771F881FDAF7880F9695879597F9089531
S11302B057FD9058440F551F59F05F3F71F0479513
S11302C0880F97FB991F61F09F3F79F087950895F8
S11302D0121613061406551FF2CF4695F1DF08C017
S11302E0161617061806991FF1CF86957105610534
S11302F008940895E894BB2766277727CB0197F9DC
S113030008950BD078C069D028F06ED018F09523EA
S113031009F05AC05FC01124EECFCADFA0F3959F45
S1130320D1F3950F50E0551F629FF001729FBB27D8
S1130330F00DB11D639FAA27F00DB11DAA1F649F84
S11303406627B00DA11D661F829F2227B00DA11D37
S1130350621F739FB00DA11D621F839FA00D611DBD
S1130360221F749F3327A00D611D231F849F600DDE
S1130370211D822F762F6A2F11249F5750408AF017
S1130380E1F088234AF0EE0FFF1FBB1F661F771FA3
S1130390881F91505040A9F79E3F510570F014C03A
S11303A0AACF5F3FECF3983EDCF38695779567958B
S11303B0B795F795E7959F5FC1F7FE2B880F911DC1
S11303C09695879597F9089597F99F6780E870E067
S11303D060E008959FEF80EC089500240A941616B7
S11303E0170618060906089500240A94121613061F
S11303F0140605060895092E0394000C11F48823AD
S113040052F0BB0F40F4BF2B11F460FF04C06F5FC8
S10F04107F4F8F4F9F4F0895F894FFCF4B
S113041C205420746F207475726E206F6E20262009
S113042C4F20746F207475726E206F6666202620C0
S113043C5220746F207265766572736520262034A1
S113044C2073706565647320373025202D2D3E2074
S109045C313030252000C0
S9030000FC
